{
  "_format": "hh-sol-artifact-1",
  "contractName": "CustomNFT",
  "sourceName": "contracts/CustomNFT.sol",
  "abi": [
    {
      "inputs": [
        {
          "internalType": "uint256",
          "name": "_maxSupply",
          "type": "uint256"
        }
      ],
      "stateMutability": "nonpayable",
      "type": "constructor"
    },
    {
      "anonymous": false,
      "inputs": [
        {
          "indexed": true,
          "internalType": "address",
          "name": "owner",
          "type": "address"
        },
        {
          "indexed": true,
          "internalType": "address",
          "name": "approved",
          "type": "address"
        },
        {
          "indexed": true,
          "internalType": "uint256",
          "name": "tokenId",
          "type": "uint256"
        }
      ],
      "name": "Approval",
      "type": "event"
    },
    {
      "anonymous": false,
      "inputs": [
        {
          "indexed": true,
          "internalType": "address",
          "name": "owner",
          "type": "address"
        },
        {
          "indexed": true,
          "internalType": "address",
          "name": "operator",
          "type": "address"
        },
        {
          "indexed": false,
          "internalType": "bool",
          "name": "approved",
          "type": "bool"
        }
      ],
      "name": "ApprovalForAll",
      "type": "event"
    },
    {
      "anonymous": false,
      "inputs": [
        {
          "indexed": true,
          "internalType": "address",
          "name": "from",
          "type": "address"
        },
        {
          "indexed": true,
          "internalType": "address",
          "name": "to",
          "type": "address"
        },
        {
          "indexed": true,
          "internalType": "uint256",
          "name": "tokenId",
          "type": "uint256"
        }
      ],
      "name": "Transfer",
      "type": "event"
    },
    {
      "inputs": [
        {
          "internalType": "address",
          "name": "to",
          "type": "address"
        },
        {
          "internalType": "uint256",
          "name": "tokenId",
          "type": "uint256"
        }
      ],
      "name": "approve",
      "outputs": [],
      "stateMutability": "nonpayable",
      "type": "function"
    },
    {
      "inputs": [
        {
          "internalType": "address",
          "name": "owner",
          "type": "address"
        }
      ],
      "name": "balanceOf",
      "outputs": [
        {
          "internalType": "uint256",
          "name": "",
          "type": "uint256"
        }
      ],
      "stateMutability": "view",
      "type": "function"
    },
    {
      "inputs": [
        {
          "internalType": "uint256",
          "name": "tokenId",
          "type": "uint256"
        }
      ],
      "name": "getApproved",
      "outputs": [
        {
          "internalType": "address",
          "name": "",
          "type": "address"
        }
      ],
      "stateMutability": "view",
      "type": "function"
    },
    {
      "inputs": [
        {
          "internalType": "address",
          "name": "owner",
          "type": "address"
        },
        {
          "internalType": "address",
          "name": "operator",
          "type": "address"
        }
      ],
      "name": "isApprovedForAll",
      "outputs": [
        {
          "internalType": "bool",
          "name": "",
          "type": "bool"
        }
      ],
      "stateMutability": "view",
      "type": "function"
    },
    {
      "inputs": [],
      "name": "maxSupply",
      "outputs": [
        {
          "internalType": "uint256",
          "name": "",
          "type": "uint256"
        }
      ],
      "stateMutability": "view",
      "type": "function"
    },
    {
      "inputs": [],
      "name": "mint",
      "outputs": [],
      "stateMutability": "payable",
      "type": "function"
    },
    {
      "inputs": [],
      "name": "mintedSupply",
      "outputs": [
        {
          "internalType": "uint256",
          "name": "",
          "type": "uint256"
        }
      ],
      "stateMutability": "view",
      "type": "function"
    },
    {
      "inputs": [],
      "name": "name",
      "outputs": [
        {
          "internalType": "string",
          "name": "",
          "type": "string"
        }
      ],
      "stateMutability": "view",
      "type": "function"
    },
    {
      "inputs": [
        {
          "internalType": "uint256",
          "name": "",
          "type": "uint256"
        }
      ],
      "name": "nftToOwner",
      "outputs": [
        {
          "internalType": "address",
          "name": "",
          "type": "address"
        }
      ],
      "stateMutability": "view",
      "type": "function"
    },
    {
      "inputs": [
        {
          "internalType": "uint256",
          "name": "tokenId",
          "type": "uint256"
        }
      ],
      "name": "ownerOf",
      "outputs": [
        {
          "internalType": "address",
          "name": "",
          "type": "address"
        }
      ],
      "stateMutability": "view",
      "type": "function"
    },
    {
      "inputs": [
        {
          "internalType": "address",
          "name": "from",
          "type": "address"
        },
        {
          "internalType": "address",
          "name": "to",
          "type": "address"
        },
        {
          "internalType": "uint256",
          "name": "tokenId",
          "type": "uint256"
        }
      ],
      "name": "safeTransferFrom",
      "outputs": [],
      "stateMutability": "nonpayable",
      "type": "function"
    },
    {
      "inputs": [
        {
          "internalType": "address",
          "name": "from",
          "type": "address"
        },
        {
          "internalType": "address",
          "name": "to",
          "type": "address"
        },
        {
          "internalType": "uint256",
          "name": "tokenId",
          "type": "uint256"
        },
        {
          "internalType": "bytes",
          "name": "_data",
          "type": "bytes"
        }
      ],
      "name": "safeTransferFrom",
      "outputs": [],
      "stateMutability": "nonpayable",
      "type": "function"
    },
    {
      "inputs": [
        {
          "internalType": "address",
          "name": "operator",
          "type": "address"
        },
        {
          "internalType": "bool",
          "name": "approved",
          "type": "bool"
        }
      ],
      "name": "setApprovalForAll",
      "outputs": [],
      "stateMutability": "nonpayable",
      "type": "function"
    },
    {
      "inputs": [
        {
          "internalType": "bytes4",
          "name": "interfaceId",
          "type": "bytes4"
        }
      ],
      "name": "supportsInterface",
      "outputs": [
        {
          "internalType": "bool",
          "name": "",
          "type": "bool"
        }
      ],
      "stateMutability": "view",
      "type": "function"
    },
    {
      "inputs": [],
      "name": "symbol",
      "outputs": [
        {
          "internalType": "string",
          "name": "",
          "type": "string"
        }
      ],
      "stateMutability": "view",
      "type": "function"
    },
    {
      "inputs": [
        {
          "internalType": "uint256",
          "name": "index",
          "type": "uint256"
        }
      ],
      "name": "tokenByIndex",
      "outputs": [
        {
          "internalType": "uint256",
          "name": "",
          "type": "uint256"
        }
      ],
      "stateMutability": "view",
      "type": "function"
    },
    {
      "inputs": [
        {
          "internalType": "address",
          "name": "owner",
          "type": "address"
        },
        {
          "internalType": "uint256",
          "name": "index",
          "type": "uint256"
        }
      ],
      "name": "tokenOfOwnerByIndex",
      "outputs": [
        {
          "internalType": "uint256",
          "name": "",
          "type": "uint256"
        }
      ],
      "stateMutability": "view",
      "type": "function"
    },
    {
      "inputs": [
        {
          "internalType": "uint256",
          "name": "tokenId",
          "type": "uint256"
        }
      ],
      "name": "tokenURI",
      "outputs": [
        {
          "internalType": "string",
          "name": "",
          "type": "string"
        }
      ],
      "stateMutability": "view",
      "type": "function"
    },
    {
      "inputs": [],
      "name": "totalSupply",
      "outputs": [
        {
          "internalType": "uint256",
          "name": "",
          "type": "uint256"
        }
      ],
      "stateMutability": "view",
      "type": "function"
    },
    {
      "inputs": [
        {
          "internalType": "address",
          "name": "from",
          "type": "address"
        },
        {
          "internalType": "address",
          "name": "to",
          "type": "address"
        },
        {
          "internalType": "uint256",
          "name": "tokenId",
          "type": "uint256"
        }
      ],
      "name": "transferFrom",
      "outputs": [],
      "stateMutability": "nonpayable",
      "type": "function"
    }
  ],
  "bytecode": "0x60806040523480156200001157600080fd5b50604051620034dc380380620034dc8339818101604052810190620000379190620001ac565b6040518060400160405280600981526020017f6176617461724e465400000000000000000000000000000000000000000000008152506040518060400160405280600681526020017f41564154415200000000000000000000000000000000000000000000000000008152508160009080519060200190620000bb929190620000e5565b508060019080519060200190620000d4929190620000e5565b50505080600b819055505062000261565b828054620000f390620001e2565b90600052602060002090601f01602090048101928262000117576000855562000163565b82601f106200013257805160ff191683800117855562000163565b8280016001018555821562000163579182015b828111156200016257825182559160200191906001019062000145565b5b50905062000172919062000176565b5090565b5b808211156200019157600081600090555060010162000177565b5090565b600081519050620001a68162000247565b92915050565b600060208284031215620001bf57600080fd5b6000620001cf8482850162000195565b91505092915050565b6000819050919050565b60006002820490506001821680620001fb57607f821691505b6020821081141562000212576200021162000218565b5b50919050565b7f4e487b7100000000000000000000000000000000000000000000000000000000600052602260045260246000fd5b6200025281620001d8565b81146200025e57600080fd5b50565b61326b80620002716000396000f3fe60806040526004361061011f5760003560e01c80636352211e116100a0578063c1bd8cf911610064578063c1bd8cf9146103ea578063c1e808d414610415578063c87b56dd14610452578063d5abeb011461048f578063e985e9c5146104ba5761011f565b80636352211e146102f357806370a082311461033057806395d89b411461036d578063a22cb46514610398578063b88d4fde146103c15761011f565b806318160ddd116100e757806318160ddd146101fc57806323b872dd146102275780632f745c591461025057806342842e0e1461028d5780634f6ccce7146102b65761011f565b806301ffc9a71461012457806306fdde0314610161578063081812fc1461018c578063095ea7b3146101c95780631249c58b146101f2575b600080fd5b34801561013057600080fd5b5061014b600480360381019061014691906122dd565b6104f7565b6040516101589190612706565b60405180910390f35b34801561016d57600080fd5b50610176610571565b6040516101839190612721565b60405180910390f35b34801561019857600080fd5b506101b360048036038101906101ae919061232f565b610603565b6040516101c0919061269f565b60405180910390f35b3480156101d557600080fd5b506101f060048036038101906101eb91906122a1565b610688565b005b6101fa6107b0565b005b34801561020857600080fd5b5061021161082a565b60405161021e9190612963565b60405180910390f35b34801561023357600080fd5b5061024e6004803603810190610249919061219b565b610837565b005b34801561025c57600080fd5b50610277600480360381019061027291906122a1565b610897565b6040516102849190612963565b60405180910390f35b34801561029957600080fd5b506102b460048036038101906102af919061219b565b61093c565b005b3480156102c257600080fd5b506102dd60048036038101906102d8919061232f565b61095c565b6040516102ea9190612963565b60405180910390f35b3480156102ff57600080fd5b5061031a6004803603810190610315919061232f565b6109f3565b604051610327919061269f565b60405180910390f35b34801561033c57600080fd5b5061035760048036038101906103529190612136565b610aa5565b6040516103649190612963565b60405180910390f35b34801561037957600080fd5b50610382610b5d565b60405161038f9190612721565b60405180910390f35b3480156103a457600080fd5b506103bf60048036038101906103ba9190612265565b610bef565b005b3480156103cd57600080fd5b506103e860048036038101906103e391906121ea565b610c05565b005b3480156103f657600080fd5b506103ff610c67565b60405161040c9190612963565b60405180910390f35b34801561042157600080fd5b5061043c6004803603810190610437919061232f565b610c6d565b604051610449919061269f565b60405180910390f35b34801561045e57600080fd5b506104796004803603810190610474919061232f565b610ca0565b6040516104869190612721565b60405180910390f35b34801561049b57600080fd5b506104a4610d47565b6040516104b19190612963565b60405180910390f35b3480156104c657600080fd5b506104e160048036038101906104dc919061215f565b610d4d565b6040516104ee9190612706565b60405180910390f35b60007f780e9d63000000000000000000000000000000000000000000000000000000007bffffffffffffffffffffffffffffffffffffffffffffffffffffffff1916827bffffffffffffffffffffffffffffffffffffffffffffffffffffffff1916148061056a575061056982610de1565b5b9050919050565b60606000805461058090612b88565b80601f01602080910402602001604051908101604052809291908181526020018280546105ac90612b88565b80156105f95780601f106105ce576101008083540402835291602001916105f9565b820191906000526020600020905b8154815290600101906020018083116105dc57829003601f168201915b5050505050905090565b600061060e82610ec3565b61064d576040517f08c379a000000000000000000000000000000000000000000000000000000000815260040161064490612883565b60405180910390fd5b6004600083815260200190815260200160002060009054906101000a900473ffffffffffffffffffffffffffffffffffffffff169050919050565b6000610693826109f3565b90508073ffffffffffffffffffffffffffffffffffffffff168373ffffffffffffffffffffffffffffffffffffffff161415610704576040517f08c379a00000000000000000000000000000000000000000000000000000000081526004016106fb906128e3565b60405180910390fd5b61071461070f610f2f565b610f37565b8073ffffffffffffffffffffffffffffffffffffffff16610733610f2f565b73ffffffffffffffffffffffffffffffffffffffff16148061076257506107618161075c610f2f565b610d4d565b5b6107a1576040517f08c379a000000000000000000000000000000000000000000000000000000000815260040161079890612803565b60405180910390fd5b6107ab8383610fd0565b505050565b600b54600a54106107f6576040517f08c379a00000000000000000000000000000000000000000000000000000000081526004016107ed90612923565b60405180910390fd5b61080e336001600a546108099190612a17565b611089565b6001600a60008282546108219190612a17565b92505081905550565b6000600880549050905090565b610848610842610f2f565b826110a7565b610887576040517f08c379a000000000000000000000000000000000000000000000000000000000815260040161087e90612903565b60405180910390fd5b610892838383611185565b505050565b60006108a283610aa5565b82106108e3576040517f08c379a00000000000000000000000000000000000000000000000000000000081526004016108da90612743565b60405180910390fd5b600660008473ffffffffffffffffffffffffffffffffffffffff1673ffffffffffffffffffffffffffffffffffffffff168152602001908152602001600020600083815260200190815260200160002054905092915050565b61095783838360405180602001604052806000815250610c05565b505050565b600061096661082a565b82106109a7576040517f08c379a000000000000000000000000000000000000000000000000000000000815260040161099e90612943565b60405180910390fd5b600882815481106109e1577f4e487b7100000000000000000000000000000000000000000000000000000000600052603260045260246000fd5b90600052602060002001549050919050565b6000806002600084815260200190815260200160002060009054906101000a900473ffffffffffffffffffffffffffffffffffffffff169050600073ffffffffffffffffffffffffffffffffffffffff168173ffffffffffffffffffffffffffffffffffffffff161415610a9c576040517f08c379a0000000000000000000000000000000000000000000000000000000008152600401610a9390612843565b60405180910390fd5b80915050919050565b60008073ffffffffffffffffffffffffffffffffffffffff168273ffffffffffffffffffffffffffffffffffffffff161415610b16576040517f08c379a0000000000000000000000000000000000000000000000000000000008152600401610b0d90612823565b60405180910390fd5b600360008373ffffffffffffffffffffffffffffffffffffffff1673ffffffffffffffffffffffffffffffffffffffff168152602001908152602001600020549050919050565b606060018054610b6c90612b88565b80601f0160208091040260200160405190810160405280929190818152602001828054610b9890612b88565b8015610be55780601f10610bba57610100808354040283529160200191610be5565b820191906000526020600020905b815481529060010190602001808311610bc857829003601f168201915b5050505050905090565b610c01610bfa610f2f565b83836113e1565b5050565b610c16610c10610f2f565b836110a7565b610c55576040517f08c379a0000000000000000000000000000000000000000000000000000000008152600401610c4c90612903565b60405180910390fd5b610c618484848461154e565b50505050565b600a5481565b600c6020528060005260406000206000915054906101000a900473ffffffffffffffffffffffffffffffffffffffff1681565b6060610cab82610ec3565b610cea576040517f08c379a0000000000000000000000000000000000000000000000000000000008152600401610ce1906128c3565b60405180910390fd5b6000610cf46115aa565b90506000815111610d145760405180602001604052806000815250610d3f565b80610d1e846115c1565b604051602001610d2f92919061267b565b6040516020818303038152906040525b915050919050565b600b5481565b6000600560008473ffffffffffffffffffffffffffffffffffffffff1673ffffffffffffffffffffffffffffffffffffffff16815260200190815260200160002060008373ffffffffffffffffffffffffffffffffffffffff1673ffffffffffffffffffffffffffffffffffffffff16815260200190815260200160002060009054906101000a900460ff16905092915050565b60007f80ac58cd000000000000000000000000000000000000000000000000000000007bffffffffffffffffffffffffffffffffffffffffffffffffffffffff1916827bffffffffffffffffffffffffffffffffffffffffffffffffffffffff19161480610eac57507f5b5e139f000000000000000000000000000000000000000000000000000000007bffffffffffffffffffffffffffffffffffffffffffffffffffffffff1916827bffffffffffffffffffffffffffffffffffffffffffffffffffffffff1916145b80610ebc5750610ebb8261176e565b5b9050919050565b60008073ffffffffffffffffffffffffffffffffffffffff166002600084815260200190815260200160002060009054906101000a900473ffffffffffffffffffffffffffffffffffffffff1673ffffffffffffffffffffffffffffffffffffffff1614159050919050565b600033905090565b610fcd81604051602401610f4b919061269f565b6040516020818303038152906040527f2c2ecbc2000000000000000000000000000000000000000000000000000000007bffffffffffffffffffffffffffffffffffffffffffffffffffffffff19166020820180517bffffffffffffffffffffffffffffffffffffffffffffffffffffffff83818316178352505050506117d8565b50565b816004600083815260200190815260200160002060006101000a81548173ffffffffffffffffffffffffffffffffffffffff021916908373ffffffffffffffffffffffffffffffffffffffff160217905550808273ffffffffffffffffffffffffffffffffffffffff16611043836109f3565b73ffffffffffffffffffffffffffffffffffffffff167f8c5be1e5ebec7d5bd14f71427d1e84f3dd0314c0f7b2291e5b200ac8c7c3b92560405160405180910390a45050565b6110a3828260405180602001604052806000815250611801565b5050565b60006110b282610ec3565b6110f1576040517f08c379a00000000000000000000000000000000000000000000000000000000081526004016110e8906127e3565b60405180910390fd5b60006110fc836109f3565b90508073ffffffffffffffffffffffffffffffffffffffff168473ffffffffffffffffffffffffffffffffffffffff16148061116b57508373ffffffffffffffffffffffffffffffffffffffff1661115384610603565b73ffffffffffffffffffffffffffffffffffffffff16145b8061117c575061117b8185610d4d565b5b91505092915050565b8273ffffffffffffffffffffffffffffffffffffffff166111a5826109f3565b73ffffffffffffffffffffffffffffffffffffffff16146111fb576040517f08c379a00000000000000000000000000000000000000000000000000000000081526004016111f2906128a3565b60405180910390fd5b600073ffffffffffffffffffffffffffffffffffffffff168273ffffffffffffffffffffffffffffffffffffffff16141561126b576040517f08c379a0000000000000000000000000000000000000000000000000000000008152600401611262906127a3565b60405180910390fd5b61127683838361185c565b611281600082610fd0565b6001600360008573ffffffffffffffffffffffffffffffffffffffff1673ffffffffffffffffffffffffffffffffffffffff16815260200190815260200160002060008282546112d19190612a9e565b925050819055506001600360008473ffffffffffffffffffffffffffffffffffffffff1673ffffffffffffffffffffffffffffffffffffffff16815260200190815260200160002060008282546113289190612a17565b92505081905550816002600083815260200190815260200160002060006101000a81548173ffffffffffffffffffffffffffffffffffffffff021916908373ffffffffffffffffffffffffffffffffffffffff160217905550808273ffffffffffffffffffffffffffffffffffffffff168473ffffffffffffffffffffffffffffffffffffffff167fddf252ad1be2c89b69c2b068fc378daa952ba7f163c4a11628f55a4df523b3ef60405160405180910390a4505050565b8173ffffffffffffffffffffffffffffffffffffffff168373ffffffffffffffffffffffffffffffffffffffff161415611450576040517f08c379a0000000000000000000000000000000000000000000000000000000008152600401611447906127c3565b60405180910390fd5b80600560008573ffffffffffffffffffffffffffffffffffffffff1673ffffffffffffffffffffffffffffffffffffffff16815260200190815260200160002060008473ffffffffffffffffffffffffffffffffffffffff1673ffffffffffffffffffffffffffffffffffffffff16815260200190815260200160002060006101000a81548160ff0219169083151502179055508173ffffffffffffffffffffffffffffffffffffffff168373ffffffffffffffffffffffffffffffffffffffff167f17307eab39ab6107e8899845ad3d59bd9653f200f220920489ca2b5937696c31836040516115419190612706565b60405180910390a3505050565b611559848484611185565b61156584848484611970565b6115a4576040517f08c379a000000000000000000000000000000000000000000000000000000000815260040161159b90612763565b60405180910390fd5b50505050565b606060405180602001604052806000815250905090565b60606000821415611609576040518060400160405280600181526020017f30000000000000000000000000000000000000000000000000000000000000008152509050611769565b600082905060005b6000821461163b57808061162490612beb565b915050600a826116349190612a6d565b9150611611565b60008167ffffffffffffffff81111561167d577f4e487b7100000000000000000000000000000000000000000000000000000000600052604160045260246000fd5b6040519080825280601f01601f1916602001820160405280156116af5781602001600182028036833780820191505090505b5090505b60008514611762576001826116c89190612a9e565b9150600a856116d79190612c34565b60306116e39190612a17565b60f81b81838151811061171f577f4e487b7100000000000000000000000000000000000000000000000000000000600052603260045260246000fd5b60200101907effffffffffffffffffffffffffffffffffffffffffffffffffffffffffffff1916908160001a905350600a8561175b9190612a6d565b94506116b3565b8093505050505b919050565b60007f01ffc9a7000000000000000000000000000000000000000000000000000000007bffffffffffffffffffffffffffffffffffffffffffffffffffffffff1916827bffffffffffffffffffffffffffffffffffffffffffffffffffffffff1916149050919050565b60008151905060006a636f6e736f6c652e6c6f679050602083016000808483855afa5050505050565b61180b8383611b07565b6118186000848484611970565b611857576040517f08c379a000000000000000000000000000000000000000000000000000000000815260040161184e90612763565b60405180910390fd5b505050565b611867838383611cd5565b600073ffffffffffffffffffffffffffffffffffffffff168373ffffffffffffffffffffffffffffffffffffffff1614156118aa576118a581611cda565b6118e9565b8173ffffffffffffffffffffffffffffffffffffffff168373ffffffffffffffffffffffffffffffffffffffff16146118e8576118e78382611d23565b5b5b600073ffffffffffffffffffffffffffffffffffffffff168273ffffffffffffffffffffffffffffffffffffffff16141561192c5761192781611e90565b61196b565b8273ffffffffffffffffffffffffffffffffffffffff168273ffffffffffffffffffffffffffffffffffffffff161461196a576119698282611fd3565b5b5b505050565b60006119918473ffffffffffffffffffffffffffffffffffffffff16612052565b15611afa578373ffffffffffffffffffffffffffffffffffffffff1663150b7a026119ba610f2f565b8786866040518563ffffffff1660e01b81526004016119dc94939291906126ba565b602060405180830381600087803b1580156119f657600080fd5b505af1925050508015611a2757506040513d601f19601f82011682018060405250810190611a249190612306565b60015b611aaa573d8060008114611a57576040519150601f19603f3d011682016040523d82523d6000602084013e611a5c565b606091505b50600081511415611aa2576040517f08c379a0000000000000000000000000000000000000000000000000000000008152600401611a9990612763565b60405180910390fd5b805181602001fd5b63150b7a0260e01b7bffffffffffffffffffffffffffffffffffffffffffffffffffffffff1916817bffffffffffffffffffffffffffffffffffffffffffffffffffffffff191614915050611aff565b600190505b949350505050565b600073ffffffffffffffffffffffffffffffffffffffff168273ffffffffffffffffffffffffffffffffffffffff161415611b77576040517f08c379a0000000000000000000000000000000000000000000000000000000008152600401611b6e90612863565b60405180910390fd5b611b8081610ec3565b15611bc0576040517f08c379a0000000000000000000000000000000000000000000000000000000008152600401611bb790612783565b60405180910390fd5b611bcc6000838361185c565b6001600360008473ffffffffffffffffffffffffffffffffffffffff1673ffffffffffffffffffffffffffffffffffffffff1681526020019081526020016000206000828254611c1c9190612a17565b92505081905550816002600083815260200190815260200160002060006101000a81548173ffffffffffffffffffffffffffffffffffffffff021916908373ffffffffffffffffffffffffffffffffffffffff160217905550808273ffffffffffffffffffffffffffffffffffffffff16600073ffffffffffffffffffffffffffffffffffffffff167fddf252ad1be2c89b69c2b068fc378daa952ba7f163c4a11628f55a4df523b3ef60405160405180910390a45050565b505050565b6008805490506009600083815260200190815260200160002081905550600881908060018154018082558091505060019003906000526020600020016000909190919091505550565b60006001611d3084610aa5565b611d3a9190612a9e565b9050600060076000848152602001908152602001600020549050818114611e1f576000600660008673ffffffffffffffffffffffffffffffffffffffff1673ffffffffffffffffffffffffffffffffffffffff168152602001908152602001600020600084815260200190815260200160002054905080600660008773ffffffffffffffffffffffffffffffffffffffff1673ffffffffffffffffffffffffffffffffffffffff168152602001908152602001600020600084815260200190815260200160002081905550816007600083815260200190815260200160002081905550505b6007600084815260200190815260200160002060009055600660008573ffffffffffffffffffffffffffffffffffffffff1673ffffffffffffffffffffffffffffffffffffffff16815260200190815260200160002060008381526020019081526020016000206000905550505050565b60006001600880549050611ea49190612a9e565b9050600060096000848152602001908152602001600020549050600060088381548110611efa577f4e487b7100000000000000000000000000000000000000000000000000000000600052603260045260246000fd5b906000526020600020015490508060088381548110611f42577f4e487b7100000000000000000000000000000000000000000000000000000000600052603260045260246000fd5b906000526020600020018190555081600960008381526020019081526020016000208190555060096000858152602001908152602001600020600090556008805480611fb7577f4e487b7100000000000000000000000000000000000000000000000000000000600052603160045260246000fd5b6001900381819060005260206000200160009055905550505050565b6000611fde83610aa5565b905081600660008573ffffffffffffffffffffffffffffffffffffffff1673ffffffffffffffffffffffffffffffffffffffff168152602001908152602001600020600083815260200190815260200160002081905550806007600084815260200190815260200160002081905550505050565b600080823b905060008111915050919050565b6000612078612073846129a3565b61297e565b90508281526020810184848401111561209057600080fd5b61209b848285612b46565b509392505050565b6000813590506120b2816131d9565b92915050565b6000813590506120c7816131f0565b92915050565b6000813590506120dc81613207565b92915050565b6000815190506120f181613207565b92915050565b600082601f83011261210857600080fd5b8135612118848260208601612065565b91505092915050565b6000813590506121308161321e565b92915050565b60006020828403121561214857600080fd5b6000612156848285016120a3565b91505092915050565b6000806040838503121561217257600080fd5b6000612180858286016120a3565b9250506020612191858286016120a3565b9150509250929050565b6000806000606084860312156121b057600080fd5b60006121be868287016120a3565b93505060206121cf868287016120a3565b92505060406121e086828701612121565b9150509250925092565b6000806000806080858703121561220057600080fd5b600061220e878288016120a3565b945050602061221f878288016120a3565b935050604061223087828801612121565b925050606085013567ffffffffffffffff81111561224d57600080fd5b612259878288016120f7565b91505092959194509250565b6000806040838503121561227857600080fd5b6000612286858286016120a3565b9250506020612297858286016120b8565b9150509250929050565b600080604083850312156122b457600080fd5b60006122c2858286016120a3565b92505060206122d385828601612121565b9150509250929050565b6000602082840312156122ef57600080fd5b60006122fd848285016120cd565b91505092915050565b60006020828403121561231857600080fd5b6000612326848285016120e2565b91505092915050565b60006020828403121561234157600080fd5b600061234f84828501612121565b91505092915050565b61236181612ad2565b82525050565b61237081612ae4565b82525050565b6000612381826129d4565b61238b81856129ea565b935061239b818560208601612b55565b6123a481612d21565b840191505092915050565b60006123ba826129df565b6123c481856129fb565b93506123d4818560208601612b55565b6123dd81612d21565b840191505092915050565b60006123f3826129df565b6123fd8185612a0c565b935061240d818560208601612b55565b80840191505092915050565b6000612426602b836129fb565b915061243182612d32565b604082019050919050565b60006124496032836129fb565b915061245482612d81565b604082019050919050565b600061246c601c836129fb565b915061247782612dd0565b602082019050919050565b600061248f6024836129fb565b915061249a82612df9565b604082019050919050565b60006124b26019836129fb565b91506124bd82612e48565b602082019050919050565b60006124d5602c836129fb565b91506124e082612e71565b604082019050919050565b60006124f86038836129fb565b915061250382612ec0565b604082019050919050565b600061251b602a836129fb565b915061252682612f0f565b604082019050919050565b600061253e6029836129fb565b915061254982612f5e565b604082019050919050565b60006125616020836129fb565b915061256c82612fad565b602082019050919050565b6000612584602c836129fb565b915061258f82612fd6565b604082019050919050565b60006125a76029836129fb565b91506125b282613025565b604082019050919050565b60006125ca602f836129fb565b91506125d582613074565b604082019050919050565b60006125ed6021836129fb565b91506125f8826130c3565b604082019050919050565b60006126106031836129fb565b915061261b82613112565b604082019050919050565b60006126336008836129fb565b915061263e82613161565b602082019050919050565b6000612656602c836129fb565b91506126618261318a565b604082019050919050565b61267581612b3c565b82525050565b600061268782856123e8565b915061269382846123e8565b91508190509392505050565b60006020820190506126b46000830184612358565b92915050565b60006080820190506126cf6000830187612358565b6126dc6020830186612358565b6126e9604083018561266c565b81810360608301526126fb8184612376565b905095945050505050565b600060208201905061271b6000830184612367565b92915050565b6000602082019050818103600083015261273b81846123af565b905092915050565b6000602082019050818103600083015261275c81612419565b9050919050565b6000602082019050818103600083015261277c8161243c565b9050919050565b6000602082019050818103600083015261279c8161245f565b9050919050565b600060208201905081810360008301526127bc81612482565b9050919050565b600060208201905081810360008301526127dc816124a5565b9050919050565b600060208201905081810360008301526127fc816124c8565b9050919050565b6000602082019050818103600083015261281c816124eb565b9050919050565b6000602082019050818103600083015261283c8161250e565b9050919050565b6000602082019050818103600083015261285c81612531565b9050919050565b6000602082019050818103600083015261287c81612554565b9050919050565b6000602082019050818103600083015261289c81612577565b9050919050565b600060208201905081810360008301526128bc8161259a565b9050919050565b600060208201905081810360008301526128dc816125bd565b9050919050565b600060208201905081810360008301526128fc816125e0565b9050919050565b6000602082019050818103600083015261291c81612603565b9050919050565b6000602082019050818103600083015261293c81612626565b9050919050565b6000602082019050818103600083015261295c81612649565b9050919050565b6000602082019050612978600083018461266c565b92915050565b6000612988612999565b90506129948282612bba565b919050565b6000604051905090565b600067ffffffffffffffff8211156129be576129bd612cf2565b5b6129c782612d21565b9050602081019050919050565b600081519050919050565b600081519050919050565b600082825260208201905092915050565b600082825260208201905092915050565b600081905092915050565b6000612a2282612b3c565b9150612a2d83612b3c565b9250827fffffffffffffffffffffffffffffffffffffffffffffffffffffffffffffffff03821115612a6257612a61612c65565b5b828201905092915050565b6000612a7882612b3c565b9150612a8383612b3c565b925082612a9357612a92612c94565b5b828204905092915050565b6000612aa982612b3c565b9150612ab483612b3c565b925082821015612ac757612ac6612c65565b5b828203905092915050565b6000612add82612b1c565b9050919050565b60008115159050919050565b60007fffffffff0000000000000000000000000000000000000000000000000000000082169050919050565b600073ffffffffffffffffffffffffffffffffffffffff82169050919050565b6000819050919050565b82818337600083830152505050565b60005b83811015612b73578082015181840152602081019050612b58565b83811115612b82576000848401525b50505050565b60006002820490506001821680612ba057607f821691505b60208210811415612bb457612bb3612cc3565b5b50919050565b612bc382612d21565b810181811067ffffffffffffffff82111715612be257612be1612cf2565b5b80604052505050565b6000612bf682612b3c565b91507fffffffffffffffffffffffffffffffffffffffffffffffffffffffffffffffff821415612c2957612c28612c65565b5b600182019050919050565b6000612c3f82612b3c565b9150612c4a83612b3c565b925082612c5a57612c59612c94565b5b828206905092915050565b7f4e487b7100000000000000000000000000000000000000000000000000000000600052601160045260246000fd5b7f4e487b7100000000000000000000000000000000000000000000000000000000600052601260045260246000fd5b7f4e487b7100000000000000000000000000000000000000000000000000000000600052602260045260246000fd5b7f4e487b7100000000000000000000000000000000000000000000000000000000600052604160045260246000fd5b6000601f19601f8301169050919050565b7f455243373231456e756d657261626c653a206f776e657220696e646578206f7560008201527f74206f6620626f756e6473000000000000000000000000000000000000000000602082015250565b7f4552433732313a207472616e7366657220746f206e6f6e20455243373231526560008201527f63656976657220696d706c656d656e7465720000000000000000000000000000602082015250565b7f4552433732313a20746f6b656e20616c7265616479206d696e74656400000000600082015250565b7f4552433732313a207472616e7366657220746f20746865207a65726f2061646460008201527f7265737300000000000000000000000000000000000000000000000000000000602082015250565b7f4552433732313a20617070726f766520746f2063616c6c657200000000000000600082015250565b7f4552433732313a206f70657261746f7220717565727920666f72206e6f6e657860008201527f697374656e7420746f6b656e0000000000000000000000000000000000000000602082015250565b7f4552433732313a20617070726f76652063616c6c6572206973206e6f74206f7760008201527f6e6572206e6f7220617070726f76656420666f7220616c6c0000000000000000602082015250565b7f4552433732313a2062616c616e636520717565727920666f7220746865207a6560008201527f726f206164647265737300000000000000000000000000000000000000000000602082015250565b7f4552433732313a206f776e657220717565727920666f72206e6f6e657869737460008201527f656e7420746f6b656e0000000000000000000000000000000000000000000000602082015250565b7f4552433732313a206d696e7420746f20746865207a65726f2061646472657373600082015250565b7f4552433732313a20617070726f76656420717565727920666f72206e6f6e657860008201527f697374656e7420746f6b656e0000000000000000000000000000000000000000602082015250565b7f4552433732313a207472616e73666572206f6620746f6b656e2074686174206960008201527f73206e6f74206f776e0000000000000000000000000000000000000000000000602082015250565b7f4552433732314d657461646174613a2055524920717565727920666f72206e6f60008201527f6e6578697374656e7420746f6b656e0000000000000000000000000000000000602082015250565b7f4552433732313a20617070726f76616c20746f2063757272656e74206f776e6560008201527f7200000000000000000000000000000000000000000000000000000000000000602082015250565b7f4552433732313a207472616e736665722063616c6c6572206973206e6f74206f60008201527f776e6572206e6f7220617070726f766564000000000000000000000000000000602082015250565b7f536f6c64206f7574000000000000000000000000000000000000000000000000600082015250565b7f455243373231456e756d657261626c653a20676c6f62616c20696e646578206f60008201527f7574206f6620626f756e64730000000000000000000000000000000000000000602082015250565b6131e281612ad2565b81146131ed57600080fd5b50565b6131f981612ae4565b811461320457600080fd5b50565b61321081612af0565b811461321b57600080fd5b50565b61322781612b3c565b811461323257600080fd5b5056fea264697066735822122085f97087812c7db3bf799f75f3e3cfecda54bbf6789ab77d7a3342fda46a6fde64736f6c63430008040033",
  "linkReferences": {},
  "deployedLinkReferences": {}
}