{
  "_format": "hh-sol-artifact-1",
  "contractName": "CollateralEngine",
  "sourceName": "contracts/CollateralEngine.sol",
  "abi": [
    {
      "inputs": [
        {
          "internalType": "address",
          "name": "_nft_collection_address",
          "type": "address"
        }
      ],
      "stateMutability": "payable",
      "type": "constructor"
    },
    {
      "anonymous": false,
      "inputs": [
        {
          "indexed": true,
          "internalType": "address",
          "name": "from",
          "type": "address"
        },
        {
          "indexed": true,
          "internalType": "uint256",
          "name": "value",
          "type": "uint256"
        }
      ],
      "name": "BorrowEth",
      "type": "event"
    },
    {
      "anonymous": false,
      "inputs": [
        {
          "indexed": true,
          "internalType": "address",
          "name": "from",
          "type": "address"
        },
        {
          "indexed": true,
          "internalType": "uint256",
          "name": "tokenId",
          "type": "uint256"
        }
      ],
      "name": "DepositNFT",
      "type": "event"
    },
    {
      "anonymous": false,
      "inputs": [
        {
          "indexed": true,
          "internalType": "address",
          "name": "to",
          "type": "address"
        },
        {
          "indexed": false,
          "internalType": "uint256",
          "name": "nft_listed_price",
          "type": "uint256"
        },
        {
          "indexed": true,
          "internalType": "uint256",
          "name": "tokenId",
          "type": "uint256"
        },
        {
          "indexed": false,
          "internalType": "uint256",
          "name": "debt_amount",
          "type": "uint256"
        }
      ],
      "name": "DownPaymentExecuted",
      "type": "event"
    },
    {
      "anonymous": false,
      "inputs": [
        {
          "indexed": true,
          "internalType": "address",
          "name": "from",
          "type": "address"
        },
        {
          "indexed": true,
          "internalType": "uint256",
          "name": "value",
          "type": "uint256"
        }
      ],
      "name": "LendEth",
      "type": "event"
    },
    {
      "anonymous": false,
      "inputs": [
        {
          "indexed": true,
          "internalType": "address",
          "name": "previousOwner",
          "type": "address"
        },
        {
          "indexed": true,
          "internalType": "address",
          "name": "newOwner",
          "type": "address"
        }
      ],
      "name": "OwnershipTransferred",
      "type": "event"
    },
    {
      "anonymous": false,
      "inputs": [
        {
          "indexed": true,
          "internalType": "address",
          "name": "from",
          "type": "address"
        },
        {
          "indexed": true,
          "internalType": "uint256",
          "name": "value",
          "type": "uint256"
        }
      ],
      "name": "RepayEthDebt",
      "type": "event"
    },
    {
      "anonymous": false,
      "inputs": [
        {
          "indexed": true,
          "internalType": "address",
          "name": "from",
          "type": "address"
        },
        {
          "indexed": true,
          "internalType": "uint256",
          "name": "tokenId",
          "type": "uint256"
        },
        {
          "indexed": true,
          "internalType": "uint256",
          "name": "value",
          "type": "uint256"
        }
      ],
      "name": "UpdatedEstimatedValues",
      "type": "event"
    },
    {
      "anonymous": false,
      "inputs": [
        {
          "indexed": true,
          "internalType": "address",
          "name": "from",
          "type": "address"
        },
        {
          "indexed": true,
          "internalType": "uint256",
          "name": "value",
          "type": "uint256"
        }
      ],
      "name": "WithdrawEth",
      "type": "event"
    },
    {
      "anonymous": false,
      "inputs": [
        {
          "indexed": true,
          "internalType": "address",
          "name": "from",
          "type": "address"
        },
        {
          "indexed": true,
          "internalType": "uint256",
          "name": "tokenId",
          "type": "uint256"
        }
      ],
      "name": "WithdrawNFT",
      "type": "event"
    },
    {
      "inputs": [
        {
          "internalType": "uint256",
          "name": "_amount",
          "type": "uint256"
        },
        {
          "internalType": "uint256",
          "name": "_token_id",
          "type": "uint256"
        }
      ],
      "name": "borrow_eth",
      "outputs": [],
      "stateMutability": "payable",
      "type": "function"
    },
    {
      "inputs": [],
      "name": "collateral_factor",
      "outputs": [
        {
          "internalType": "uint256",
          "name": "",
          "type": "uint256"
        }
      ],
      "stateMutability": "view",
      "type": "function"
    },
    {
      "inputs": [
        {
          "internalType": "uint256",
          "name": "_token_id",
          "type": "uint256"
        }
      ],
      "name": "deposit_nft",
      "outputs": [],
      "stateMutability": "nonpayable",
      "type": "function"
    },
    {
      "inputs": [
        {
          "internalType": "uint256",
          "name": "_nft_listed_price",
          "type": "uint256"
        },
        {
          "internalType": "uint256",
          "name": "_debt_amount",
          "type": "uint256"
        },
        {
          "internalType": "uint256",
          "name": "_token_id",
          "type": "uint256"
        }
      ],
      "name": "down_payment",
      "outputs": [],
      "stateMutability": "payable",
      "type": "function"
    },
    {
      "inputs": [
        {
          "internalType": "uint256",
          "name": "",
          "type": "uint256"
        }
      ],
      "name": "down_payments",
      "outputs": [
        {
          "internalType": "uint256",
          "name": "",
          "type": "uint256"
        }
      ],
      "stateMutability": "view",
      "type": "function"
    },
    {
      "inputs": [
        {
          "internalType": "uint256",
          "name": "_token_id",
          "type": "uint256"
        }
      ],
      "name": "get_address_borrow_balance_per_nft",
      "outputs": [
        {
          "internalType": "uint256",
          "name": "",
          "type": "uint256"
        }
      ],
      "stateMutability": "view",
      "type": "function"
    },
    {
      "inputs": [
        {
          "internalType": "uint256",
          "name": "_token_id",
          "type": "uint256"
        }
      ],
      "name": "get_address_borrow_limit_per_nft",
      "outputs": [
        {
          "internalType": "uint256",
          "name": "",
          "type": "uint256"
        }
      ],
      "stateMutability": "view",
      "type": "function"
    },
    {
      "inputs": [],
      "name": "get_deposit_nft_value",
      "outputs": [
        {
          "internalType": "uint256",
          "name": "",
          "type": "uint256"
        }
      ],
      "stateMutability": "view",
      "type": "function"
    },
    {
      "inputs": [
        {
          "internalType": "uint256",
          "name": "_token_id",
          "type": "uint256"
        }
      ],
      "name": "get_token_estimated_value",
      "outputs": [
        {
          "internalType": "uint256",
          "name": "",
          "type": "uint256"
        }
      ],
      "stateMutability": "view",
      "type": "function"
    },
    {
      "inputs": [
        {
          "internalType": "address",
          "name": "",
          "type": "address"
        }
      ],
      "name": "lend_balance",
      "outputs": [
        {
          "internalType": "uint256",
          "name": "",
          "type": "uint256"
        }
      ],
      "stateMutability": "view",
      "type": "function"
    },
    {
      "inputs": [],
      "name": "lend_eth",
      "outputs": [],
      "stateMutability": "payable",
      "type": "function"
    },
    {
      "inputs": [
        {
          "internalType": "uint256",
          "name": "",
          "type": "uint256"
        }
      ],
      "name": "nft_owners",
      "outputs": [
        {
          "internalType": "address",
          "name": "",
          "type": "address"
        }
      ],
      "stateMutability": "view",
      "type": "function"
    },
    {
      "inputs": [],
      "name": "owner",
      "outputs": [
        {
          "internalType": "address",
          "name": "",
          "type": "address"
        }
      ],
      "stateMutability": "view",
      "type": "function"
    },
    {
      "inputs": [],
      "name": "renounceOwnership",
      "outputs": [],
      "stateMutability": "nonpayable",
      "type": "function"
    },
    {
      "inputs": [
        {
          "internalType": "uint256",
          "name": "_token_id",
          "type": "uint256"
        }
      ],
      "name": "repay_eth_debt",
      "outputs": [],
      "stateMutability": "payable",
      "type": "function"
    },
    {
      "inputs": [
        {
          "internalType": "uint256",
          "name": "_token_id",
          "type": "uint256"
        }
      ],
      "name": "reset_down_payment",
      "outputs": [],
      "stateMutability": "nonpayable",
      "type": "function"
    },
    {
      "inputs": [],
      "name": "total_balance",
      "outputs": [
        {
          "internalType": "uint256",
          "name": "",
          "type": "uint256"
        }
      ],
      "stateMutability": "view",
      "type": "function"
    },
    {
      "inputs": [
        {
          "internalType": "address",
          "name": "newOwner",
          "type": "address"
        }
      ],
      "name": "transferOwnership",
      "outputs": [],
      "stateMutability": "nonpayable",
      "type": "function"
    },
    {
      "inputs": [
        {
          "internalType": "uint256",
          "name": "_token_id",
          "type": "uint256"
        },
        {
          "internalType": "uint256",
          "name": "_floor",
          "type": "uint256"
        }
      ],
      "name": "update_estimated_values",
      "outputs": [],
      "stateMutability": "nonpayable",
      "type": "function"
    },
    {
      "inputs": [
        {
          "internalType": "uint256",
          "name": "_amount",
          "type": "uint256"
        }
      ],
      "name": "withdraw_eth",
      "outputs": [],
      "stateMutability": "payable",
      "type": "function"
    },
    {
      "inputs": [
        {
          "internalType": "uint256",
          "name": "_token_id",
          "type": "uint256"
        }
      ],
      "name": "withdraw_nft",
      "outputs": [],
      "stateMutability": "nonpayable",
      "type": "function"
    },
    {
      "stateMutability": "payable",
      "type": "receive"
    }
  ],
  "bytecode": "0x6080604052601e600255604051620025cd380380620025cd83398181016040528101906200002e9190620001c5565b6200004e62000042620000e260201b60201c565b620000ea60201b60201c565b601e60028190555080600a60006101000a81548173ffffffffffffffffffffffffffffffffffffffff021916908373ffffffffffffffffffffffffffffffffffffffff16021790555068056bc75e2d63100000600860006002815260200190815260200160002081905550681043561a8829300000600860006004815260200190815260200160002081905550506200023f565b600033905090565b60008060009054906101000a900473ffffffffffffffffffffffffffffffffffffffff169050816000806101000a81548173ffffffffffffffffffffffffffffffffffffffff021916908373ffffffffffffffffffffffffffffffffffffffff1602179055508173ffffffffffffffffffffffffffffffffffffffff168173ffffffffffffffffffffffffffffffffffffffff167f8be0079c531659141344cd1fd0a4f28419497f9722a3daafe3b4186f6b6457e060405160405180910390a35050565b600081519050620001bf8162000225565b92915050565b600060208284031215620001d857600080fd5b6000620001e884828501620001ae565b91505092915050565b6000620001fe8262000205565b9050919050565b600073ffffffffffffffffffffffffffffffffffffffff82169050919050565b6200023081620001f1565b81146200023c57600080fd5b50565b61237e806200024f6000396000f3fe60806040526004361061012e5760003560e01c80639eed2778116100ab578063d2ff791f1161006f578063d2ff791f1461042f578063d49c1fc41461045a578063d788a13f14610476578063e528b3b6146104a1578063f2fde38b146104bd578063f35e8190146104e657610173565b80639eed277814610326578063c2ebcc1b14610363578063c9b7e289146103a0578063cbca1319146103c9578063d1a067b9146103f257610173565b8063715018a6116100f2578063715018a61461025557806379ea168b1461026c5780638ce70fea146102955780638da5cb5b146102d257806398a5c4e3146102fd57610173565b806312eaa3da1461017857806330a95e67146101a357806340226060146101bf5780634cc58df4146101db5780636f6750071461021857610173565b36610173576101716040518060400160405280600881526020017f52656365697665640000000000000000000000000000000000000000000000008152506104f0565b005b600080fd5b34801561018457600080fd5b5061018d610589565b60405161019a9190611ebe565b60405180910390f35b6101bd60048036038101906101b89190611ae4565b61058f565b005b6101d960048036038101906101d49190611ae4565b61070e565b005b3480156101e757600080fd5b5061020260048036038101906101fd9190611ae4565b6108cf565b60405161020f9190611ebe565b60405180910390f35b34801561022457600080fd5b5061023f600480360381019061023a9190611ae4565b610929565b60405161024c9190611ebe565b60405180910390f35b34801561026157600080fd5b5061026a610946565b005b34801561027857600080fd5b50610293600480360381019061028e9190611b0d565b6109ce565b005b3480156102a157600080fd5b506102bc60048036038101906102b79190611ae4565b610aab565b6040516102c99190611ebe565b60405180910390f35b3480156102de57600080fd5b506102e7610b05565b6040516102f49190611d2a565b60405180910390f35b34801561030957600080fd5b50610324600480360381019061031f9190611ae4565b610b2e565b005b34801561033257600080fd5b5061034d60048036038101906103489190611ae4565b610d0c565b60405161035a9190611ebe565b60405180910390f35b34801561036f57600080fd5b5061038a60048036038101906103859190611abb565b610d24565b6040516103979190611ebe565b60405180910390f35b3480156103ac57600080fd5b506103c760048036038101906103c29190611ae4565b610d3c565b005b3480156103d557600080fd5b506103f060048036038101906103eb9190611ae4565b611093565b005b3480156103fe57600080fd5b5061041960048036038101906104149190611ae4565b61129b565b6040516104269190611d2a565b60405180910390f35b34801561043b57600080fd5b506104446112ce565b6040516104519190611ebe565b60405180910390f35b610474600480360381019061046f9190611b0d565b6112d4565b005b34801561048257600080fd5b5061048b611522565b6040516104989190611ebe565b60405180910390f35b6104bb60048036038101906104b69190611b49565b611569565b005b3480156104c957600080fd5b506104e460048036038101906104df9190611abb565b61178a565b005b6104ee611882565b005b610586816040516024016105049190611d7c565b6040516020818303038152906040527f41304fac000000000000000000000000000000000000000000000000000000007bffffffffffffffffffffffffffffffffffffffffffffffffffffffff19166020820180517bffffffffffffffffffffffffffffffffffffffffffffffffffffffff8381831617835250505050611937565b50565b60025481565b600560003373ffffffffffffffffffffffffffffffffffffffff1673ffffffffffffffffffffffffffffffffffffffff16815260200190815260200160002054811115610611576040517f08c379a000000000000000000000000000000000000000000000000000000000815260040161060890611e1e565b60405180910390fd5b3373ffffffffffffffffffffffffffffffffffffffff166108fc829081150290604051600060405180830381858888f19350505050158015610657573d6000803e3d6000fd5b5080600560003373ffffffffffffffffffffffffffffffffffffffff1673ffffffffffffffffffffffffffffffffffffffff16815260200190815260200160002060008282546106a79190611fff565b9250508190555080600160008282546106c09190611fff565b92505081905550343373ffffffffffffffffffffffffffffffffffffffff167fccbd99ba6da8f29b2a4f65e474e3c3973564d356c162c08d45f3dc7f0cb5b3aa60405160405180910390a350565b600660003373ffffffffffffffffffffffffffffffffffffffff1673ffffffffffffffffffffffffffffffffffffffff1681526020019081526020016000206000828152602001908152602001600020543411156107a1576040517f08c379a000000000000000000000000000000000000000000000000000000000815260040161079890611dde565b60405180910390fd5b34600760003373ffffffffffffffffffffffffffffffffffffffff1673ffffffffffffffffffffffffffffffffffffffff168152602001908152602001600020600083815260200190815260200160002060008282546108019190611f1e565b9250508190555034600660003373ffffffffffffffffffffffffffffffffffffffff1673ffffffffffffffffffffffffffffffffffffffff168152602001908152602001600020600083815260200190815260200160002060008282546108689190611fff565b9250508190555034600160008282546108819190611f1e565b92505081905550343373ffffffffffffffffffffffffffffffffffffffff167fb38df77d9018de01b6e91abfa3378f0a9623c95d2c4d3251f913603b0cec9f9260405160405180910390a350565b6000600660003373ffffffffffffffffffffffffffffffffffffffff1673ffffffffffffffffffffffffffffffffffffffff1681526020019081526020016000206000838152602001908152602001600020549050919050565b600060086000838152602001908152602001600020549050919050565b61094e611960565b73ffffffffffffffffffffffffffffffffffffffff1661096c610b05565b73ffffffffffffffffffffffffffffffffffffffff16146109c2576040517f08c379a00000000000000000000000000000000000000000000000000000000081526004016109b990611e5e565b60405180910390fd5b6109cc6000611968565b565b6109d6611960565b73ffffffffffffffffffffffffffffffffffffffff166109f4610b05565b73ffffffffffffffffffffffffffffffffffffffff1614610a4a576040517f08c379a0000000000000000000000000000000000000000000000000000000008152600401610a4190611e5e565b60405180910390fd5b80600860008481526020019081526020016000208190555080823373ffffffffffffffffffffffffffffffffffffffff167f9352b4bb091d197f3625d734a194a102be35067470df79ec39fe998c4dcb0d8360405160405180910390a45050565b6000600760003373ffffffffffffffffffffffffffffffffffffffff1673ffffffffffffffffffffffffffffffffffffffff1681526020019081526020016000206000838152602001908152602001600020549050919050565b60008060009054906101000a900473ffffffffffffffffffffffffffffffffffffffff16905090565b600660003373ffffffffffffffffffffffffffffffffffffffff1673ffffffffffffffffffffffffffffffffffffffff16815260200190815260200160002060008281526020019081526020016000205460016000828254610b909190611f1e565b925050819055506000600760003373ffffffffffffffffffffffffffffffffffffffff1673ffffffffffffffffffffffffffffffffffffffff1681526020019081526020016000206000838152602001908152602001600020819055506000600660003373ffffffffffffffffffffffffffffffffffffffff1673ffffffffffffffffffffffffffffffffffffffff1681526020019081526020016000206000838152602001908152602001600020819055503373ffffffffffffffffffffffffffffffffffffffff166108fc60096000848152602001908152602001600020549081150290604051600060405180830381858888f19350505050158015610c9c573d6000803e3d6000fd5b506000600960008381526020019081526020016000208190555060006003600083815260200190815260200160002060006101000a81548173ffffffffffffffffffffffffffffffffffffffff021916908373ffffffffffffffffffffffffffffffffffffffff16021790555050565b60096020528060005260406000206000915090505481565b60056020528060005260406000206000915090505481565b3373ffffffffffffffffffffffffffffffffffffffff166003600083815260200190815260200160002060009054906101000a900473ffffffffffffffffffffffffffffffffffffffff1673ffffffffffffffffffffffffffffffffffffffff1614610ddd576040517f08c379a0000000000000000000000000000000000000000000000000000000008152600401610dd490611e3e565b60405180910390fd5b600660003373ffffffffffffffffffffffffffffffffffffffff1673ffffffffffffffffffffffffffffffffffffffff168152602001908152602001600020600082815260200190815260200160002054610e4a6008600084815260200190815260200160002054611a2c565b600760003373ffffffffffffffffffffffffffffffffffffffff1673ffffffffffffffffffffffffffffffffffffffff168152602001908152602001600020600084815260200190815260200160002054610ea59190611fff565b1015610ee6576040517f08c379a0000000000000000000000000000000000000000000000000000000008152600401610edd90611e9e565b60405180910390fd5b600a60009054906101000a900473ffffffffffffffffffffffffffffffffffffffff1673ffffffffffffffffffffffffffffffffffffffff166323b872dd3033846040518463ffffffff1660e01b8152600401610f4593929190611d45565b600060405180830381600087803b158015610f5f57600080fd5b505af1158015610f73573d6000803e3d6000fd5b5050505060006003600083815260200190815260200160002060006101000a81548173ffffffffffffffffffffffffffffffffffffffff021916908373ffffffffffffffffffffffffffffffffffffffff160217905550610fe66008600083815260200190815260200160002054611a2c565b600760003373ffffffffffffffffffffffffffffffffffffffff1673ffffffffffffffffffffffffffffffffffffffff168152602001908152602001600020600083815260200190815260200160002060008282546110459190611fff565b92505081905550803373ffffffffffffffffffffffffffffffffffffffff167f3a1474f7e987c73586ba37f580025eac82a1456e87b9eace40768b8518a4b37560405160405180910390a350565b600a60009054906101000a900473ffffffffffffffffffffffffffffffffffffffff1673ffffffffffffffffffffffffffffffffffffffff166323b872dd3330846040518463ffffffff1660e01b81526004016110f293929190611d45565b600060405180830381600087803b15801561110c57600080fd5b505af1158015611120573d6000803e3d6000fd5b50505050336003600083815260200190815260200160002060006101000a81548173ffffffffffffffffffffffffffffffffffffffff021916908373ffffffffffffffffffffffffffffffffffffffff16021790555060006008600083815260200190815260200160002054905061119781611a2c565b600760003373ffffffffffffffffffffffffffffffffffffffff1673ffffffffffffffffffffffffffffffffffffffff168152602001908152602001600020600084815260200190815260200160002060008282546111f69190611f1e565b9250508190555080600460003373ffffffffffffffffffffffffffffffffffffffff1673ffffffffffffffffffffffffffffffffffffffff168152602001908152602001600020600082825461124c9190611f1e565b92505081905550813373ffffffffffffffffffffffffffffffffffffffff167f92870ae08c3555517c02835983340c2b7a7cd081d53eda12eb28e69a28924cb660405160405180910390a35050565b60036020528060005260406000206000915054906101000a900473ffffffffffffffffffffffffffffffffffffffff1681565b60015481565b600760003373ffffffffffffffffffffffffffffffffffffffff1673ffffffffffffffffffffffffffffffffffffffff168152602001908152602001600020600082815260200190815260200160002054821115611367576040517f08c379a000000000000000000000000000000000000000000000000000000000815260040161135e90611dfe565b60405180910390fd5b6001548211156113ac576040517f08c379a00000000000000000000000000000000000000000000000000000000081526004016113a390611e7e565b60405180910390fd5b3373ffffffffffffffffffffffffffffffffffffffff166108fc839081150290604051600060405180830381858888f193505050501580156113f2573d6000803e3d6000fd5b5081600760003373ffffffffffffffffffffffffffffffffffffffff1673ffffffffffffffffffffffffffffffffffffffff168152602001908152602001600020600083815260200190815260200160002060008282546114539190611fff565b9250508190555081600660003373ffffffffffffffffffffffffffffffffffffffff1673ffffffffffffffffffffffffffffffffffffffff168152602001908152602001600020600083815260200190815260200160002060008282546114ba9190611f1e565b9250508190555081600160008282546114d39190611fff565b92505081905550813373ffffffffffffffffffffffffffffffffffffffff167fe830fa6e685fba2ba2f32c76f5db25aff3acbea74cecf28759cec44ceaf9e6b660405160405180910390a35050565b6000600460003373ffffffffffffffffffffffffffffffffffffffff1673ffffffffffffffffffffffffffffffffffffffff16815260200190815260200160002054905090565b61157283611a2c565b600760003373ffffffffffffffffffffffffffffffffffffffff1673ffffffffffffffffffffffffffffffffffffffff168152602001908152602001600020600083815260200190815260200160002060008282546115d19190611f1e565b9250508190555081600760003373ffffffffffffffffffffffffffffffffffffffff1673ffffffffffffffffffffffffffffffffffffffff168152602001908152602001600020600083815260200190815260200160002060008282546116389190611fff565b9250508190555081600660003373ffffffffffffffffffffffffffffffffffffffff1673ffffffffffffffffffffffffffffffffffffffff1681526020019081526020016000206000838152602001908152602001600020600082825461169f9190611f1e565b92505081905550336003600083815260200190815260200160002060006101000a81548173ffffffffffffffffffffffffffffffffffffffff021916908373ffffffffffffffffffffffffffffffffffffffff16021790555081836117049190611fff565b6009600083815260200190815260200160002081905550816001600082825461172d9190611fff565b92505081905550813373ffffffffffffffffffffffffffffffffffffffff167f6f7e28a27c2947d4e2ced811cd5ac7d76672e3990420f5dd35b8edce382d6a6d858460405161177d929190611ed9565b60405180910390a3505050565b611792611960565b73ffffffffffffffffffffffffffffffffffffffff166117b0610b05565b73ffffffffffffffffffffffffffffffffffffffff1614611806576040517f08c379a00000000000000000000000000000000000000000000000000000000081526004016117fd90611e5e565b60405180910390fd5b600073ffffffffffffffffffffffffffffffffffffffff168173ffffffffffffffffffffffffffffffffffffffff161415611876576040517f08c379a000000000000000000000000000000000000000000000000000000000815260040161186d90611d9e565b60405180910390fd5b61187f81611968565b50565b34600560003373ffffffffffffffffffffffffffffffffffffffff1673ffffffffffffffffffffffffffffffffffffffff16815260200190815260200160002060008282546118d19190611f1e565b9250508190555034600160008282546118ea9190611f1e565b92505081905550343373ffffffffffffffffffffffffffffffffffffffff167fd9f91d5c47aedba04253c6d66e97d73a984c7e43beec4726f1b76ae03239a1db60405160405180910390a3565b60008151905060006a636f6e736f6c652e6c6f679050602083016000808483855afa5050505050565b600033905090565b60008060009054906101000a900473ffffffffffffffffffffffffffffffffffffffff169050816000806101000a81548173ffffffffffffffffffffffffffffffffffffffff021916908373ffffffffffffffffffffffffffffffffffffffff1602179055508173ffffffffffffffffffffffffffffffffffffffff168173ffffffffffffffffffffffffffffffffffffffff167f8be0079c531659141344cd1fd0a4f28419497f9722a3daafe3b4186f6b6457e060405160405180910390a35050565b6000808211611a70576040517f08c379a0000000000000000000000000000000000000000000000000000000008152600401611a6790611dbe565b60405180910390fd5b606460025483611a809190611fa5565b611a8a9190611f74565b9050919050565b600081359050611aa08161231a565b92915050565b600081359050611ab581612331565b92915050565b600060208284031215611acd57600080fd5b6000611adb84828501611a91565b91505092915050565b600060208284031215611af657600080fd5b6000611b0484828501611aa6565b91505092915050565b60008060408385031215611b2057600080fd5b6000611b2e85828601611aa6565b9250506020611b3f85828601611aa6565b9150509250929050565b600080600060608486031215611b5e57600080fd5b6000611b6c86828701611aa6565b9350506020611b7d86828701611aa6565b9250506040611b8e86828701611aa6565b9150509250925092565b611ba181612033565b82525050565b6000611bb282611f02565b611bbc8185611f0d565b9350611bcc81856020860161206f565b611bd581612100565b840191505092915050565b6000611bed602683611f0d565b9150611bf882612111565b604082019050919050565b6000611c10602183611f0d565b9150611c1b82612160565b604082019050919050565b6000611c33601983611f0d565b9150611c3e826121af565b602082019050919050565b6000611c56602083611f0d565b9150611c61826121d8565b602082019050919050565b6000611c79601c83611f0d565b9150611c8482612201565b602082019050919050565b6000611c9c601383611f0d565b9150611ca78261222a565b602082019050919050565b6000611cbf602083611f0d565b9150611cca82612253565b602082019050919050565b6000611ce2603183611f0d565b9150611ced8261227c565b604082019050919050565b6000611d05602783611f0d565b9150611d10826122cb565b604082019050919050565b611d2481612065565b82525050565b6000602082019050611d3f6000830184611b98565b92915050565b6000606082019050611d5a6000830186611b98565b611d676020830185611b98565b611d746040830184611d1b565b949350505050565b60006020820190508181036000830152611d968184611ba7565b905092915050565b60006020820190508181036000830152611db781611be0565b9050919050565b60006020820190508181036000830152611dd781611c03565b9050919050565b60006020820190508181036000830152611df781611c26565b9050919050565b60006020820190508181036000830152611e1781611c49565b9050919050565b60006020820190508181036000830152611e3781611c6c565b9050919050565b60006020820190508181036000830152611e5781611c8f565b9050919050565b60006020820190508181036000830152611e7781611cb2565b9050919050565b60006020820190508181036000830152611e9781611cd5565b9050919050565b60006020820190508181036000830152611eb781611cf8565b9050919050565b6000602082019050611ed36000830184611d1b565b92915050565b6000604082019050611eee6000830185611d1b565b611efb6020830184611d1b565b9392505050565b600081519050919050565b600082825260208201905092915050565b6000611f2982612065565b9150611f3483612065565b9250827fffffffffffffffffffffffffffffffffffffffffffffffffffffffffffffffff03821115611f6957611f686120a2565b5b828201905092915050565b6000611f7f82612065565b9150611f8a83612065565b925082611f9a57611f996120d1565b5b828204905092915050565b6000611fb082612065565b9150611fbb83612065565b9250817fffffffffffffffffffffffffffffffffffffffffffffffffffffffffffffffff0483118215151615611ff457611ff36120a2565b5b828202905092915050565b600061200a82612065565b915061201583612065565b925082821015612028576120276120a2565b5b828203905092915050565b600061203e82612045565b9050919050565b600073ffffffffffffffffffffffffffffffffffffffff82169050919050565b6000819050919050565b60005b8381101561208d578082015181840152602081019050612072565b8381111561209c576000848401525b50505050565b7f4e487b7100000000000000000000000000000000000000000000000000000000600052601160045260246000fd5b7f4e487b7100000000000000000000000000000000000000000000000000000000600052601260045260246000fd5b6000601f19601f8301169050919050565b7f4f776e61626c653a206e6577206f776e657220697320746865207a65726f206160008201527f6464726573730000000000000000000000000000000000000000000000000000602082015250565b7f636f6c6c61746572616c20686173206e6f20657374696d617465642076616c7560008201527f6500000000000000000000000000000000000000000000000000000000000000602082015250565b7f706179696e67206d6f7265207468616e20626f72726f77656400000000000000600082015250565b7f626f72726f77696e67206d6f7265207468616e20626f72726f77206c696d6974600082015250565b7f7769746864726177696e67206d6f7265207468616e206c656e64656400000000600082015250565b7f4e4654206e65766572206465706f736974656400000000000000000000000000600082015250565b7f4f776e61626c653a2063616c6c6572206973206e6f7420746865206f776e6572600082015250565b7f626f72726f77696e67206d6f7265207468616e20746f74616c2062616c616e6360008201527f6520696e2074686520636f6e7472616374000000000000000000000000000000602082015250565b7f426f72726f77206c696d6974206c6f776572207468616e20626f72726f77656460008201527f20616d6f756e7400000000000000000000000000000000000000000000000000602082015250565b61232381612033565b811461232e57600080fd5b50565b61233a81612065565b811461234557600080fd5b5056fea264697066735822122089f3ed7627d5ffba4b47bcbd440738f827685be057d81cd0e1700d65cb4d504664736f6c63430008040033",
  "linkReferences": {},
  "deployedLinkReferences": {}
}